:020000040800F2
:1000000028E5002001010008FF190008F518000884
:10001000FD190008A5130008112D000800000000BC
:10002000000000000000000000000000812800081F
:100030006D15000800000000031C0008832800085C
:10004000132D0008011C000885280008871E0008E1
:100050002F160008F11D00082116000825160008BB
:1000600027160008291600082B1600080915000895
:100070000B1500080D1500080F15000811150008D4
:100080001315000815150008B7120008732A000898
:10009000752A0008A7130008A91300082D160008E8
:1000A000872800088D2800088B2800088928000868
:1000B0008F2800089128000893280008F9180008E4
:1000C000F7180008FD180008FB1800083523000881
:1000D0003723000835290008372900083929000886
:1000E00023160008851E0008712A0008DFF80CD0CE
:1000F00000F0C0FE00480047C90E010828E50020B6
:1001000000480047ED00000800210720ABBE704703
:10011000004870470481010810B50446FFF7F8FF56
:100120000068005D00F0010010BD034600E0401CC7
:100130000278002AFBD111F8012B00F8012B002ACC
:10014000F9D1184670470146002000E0401C0A5CC7
:10015000002AFBD1704710B5002200E0521C835CDE
:100160008C5CA34201D1002BF8D1D8B2E1B2401A85
:1001700010BD034611F8012B00F8012B002AF9D11C
:100180001846704730B505460020034600E05B1C6A
:10019000934205D2EC5CC85C201A01D1002CF6D148
:1001A00030BD00000FB400B58DB010A909900B90C0
:1001B00000914FF0FF300A9000200C900548069007
:1001C000054807906A4609A80F9900F0D5FC0DB0C4
:1001D0005DF814FB990B0008B70B00082DE9FF5FD1
:1001E0001D464FF0FF3BD5E90146002091465F4692
:1001F0008046A9697F1C01988847296A82468847FA
:100200000028F6D11AF101000CD024F4C064002EAD
:1002100019DD600614D5BAF12B0F09D0BAF12D0FF4
:100220000ED103E0584604B0BDE8F09F44F480646A
:10023000A9697F1C01988847761E8246002E02DD40
:10024000BAF1300F03D0B9F1000F26D032E0761E9C
:10025000A96944F400747F1C019888478246002EE7
:1002600005DDBAF1780F06D0BAF1580F03D0B9F115
:10027000000F10D01EE0B9F1000F02D0B9F1100F3D
:1002800018D1761EA96924F400747F1C0198884750
:100290008246102002E0082000E00A20814609E0A2
:1002A00008FB0908761EA96944F400747F1C0198B4
:1002B00088478246002E05DD4946504600F045FC41
:1002C0000028EDDAE96901988847A00502D46FF0AB
:1002D0000100A8E7E00726D1600613D5C8F10000A9
:1002E000610500D44046296801F104022A600968CA
:1002F000220501D5087016E0220701D5088012E01A
:10030000086010E0286800F10401296000682105F8
:1003100002D580F8008006E0210702D5A0F8008011
:1003200001E0C0F8008038467DE700002DE9FF4F6E
:10033000087881B091469846FF2806D0491C2D28A0
:1003400006D000224FF0000C09E04FF0000C0CE04A
:100350000122F7E70CEB8C0300EB430C491C0878F7
:10036000FF28F7D10AB1CCF1000C0020009099F8D9
:10037000002001462D2A01D02B2A17D109F10103B3
:1003800099462D2A02D0002200920FE00122FBE7BD
:1003900009F1010291460A22A0FB025701FB0271FA
:1003A000002300FB0312601943EB020199F800409F
:1003B000FF2CEDD10CEB0802914650EA010206D168
:1003C00001980021C0E9001105B0BDE8F08FAF4AE7
:1003D0000024AD4D2646904600F00BFD83468A462C
:1003E000B9F10000C9F1000714DB074612E0F80775
:1003F00007D022462B463046414600F0F3F9064628
:10040000884622462B461046194600F0EBF9044672
:100410000D467F10002FEAD1B9F1000F3246434656
:100420005846514602DA00F04EFA01E000F0DAF9DF
:10043000009A0AB181F00041019AC2E90001C3E7C4
:100440002DE9FF4F1F460020D7E901468DB08146B8
:100450004FF0FF382E2045460B90B9696D1C0E9861
:100460008847396A824688470028F6D11AF1010088
:100470000AD024F4D064002E12DDBAF12B0F08D07C
:10048000BAF12D0F0CD102E0404611B09DE744F4C3
:100490008064B9696D1C0E9888478246A6F10106F2
:1004A0002D206946620500D42B208DF80000491CE0
:1004B00008A88B46804609E0B9696D1C0E988847EC
:1004C00082460F98761E44F400740560002E02DD0B
:1004D000BAF1300FF0D00B998A4542D144F0800434
:1004E00007E0A9F101000F998146681C44F40074EB
:1004F0000860761EB9696D1C0E98884782463028C0
:10050000EFD02EE00B998A4505D1200603D444F0A4
:100510008004761E1BE0504603F046F920B3761E99
:100520000DF1130144F400748B450BD2AAF1300095
:100530008BF800000BF101008346200607D5A9F1D6
:10054000010003E0200602D409F101008146A00564
:1005500002D50F99681C0860B9696D1C0E98884710
:100560008246002ECEDC5CE0002E5ADDBAF1650F2B
:1005700002D0BAF1450F54D1A00552D5761EB96903
:1005800024F440746D1C0E98884782462020002E6B
:1005900000DD50462B2803D02D2808D144F4807468
:1005A000B9696D1C0E9888478246A6F10106E005E0
:1005B00005D52D2088F8000008F1010004E02B216A
:1005C00088F8001008F1010080460B9022E0761EAA
:1005D0000DF1290144F4007488450FD2AAF13000CE
:1005E00010F0FF00414688F8000003D108460B993F
:1005F000884208D908F10100804604E02448E1055A
:1006000000D440428146B9696D1C0E9888478246E5
:100610000F980560002E04DD504603F0C5F8002851
:10062000D5D1F9690E988847FF208BF8000088F82B
:1006300000000020069007904B466A4608A906A8CD
:10064000FFF774FEA00502D46FF001001DE714F05F
:10065000240F0AD0E00714D1DDE906123868031D23
:100660003B600068C0E900120BE0DDE9060100F024
:10067000E4FB0146E00704D13868021D3A600068D7
:100680000160284601E70000000024400000F03F20
:10069000F1D8FFFF2DE9FE4F074681EA0300C00FA6
:1006A0000E46019021F0004123F00044B81AA14108
:1006B00005D23846314617461E460B46024623F001
:1006C0000040104304D13846314603B0BDE8F08FF6
:1006D000350DC5F30A00C3F30A510290401A009089
:1006E00040286ADAC3F3130040F48010834601986F
:1006F000924630B10023D2EB030163EB0B008A4634
:10070000834600985946C0F14002504600F0ECF98B
:1007100080460C4650465946009A00F004FAC0192B
:100720007141EF1785EA11533B433FD0019A4AB319
:10073000009A012A11DC0022801A4FF0004361EB7D
:10074000055103EA05538018CDE9002341F58011D6
:100750004246234600F04DFAB7E72E050025401B20
:1007600061EB0601401941F580120018524128182A
:10077000A6F5001343EB020140EAD47018EB080819
:10078000644113E064084FEA38084FF0000244EA7D
:10079000C0744FEA0553801A61EB0301801841F5DC
:1007A000801149084FEA30008018594142462346DB
:1007B00003B0BDE8F04F00F00FBA019801224000ED
:1007C0000023D0EB020263EBE07301984FEAE07480
:1007D000381A66EB0401EBE783F000435AE781F037
:1007E000004157E72DE9FE4F81EA0304002621F07E
:1007F000004504F0004423F00041B246009450EA62
:10080000050302D052EA010304D10020014603B0DF
:10081000BDE8F08FC5F30A54C1F30A53C1F31301C5
:100820001C4441F48018A0FB0213C5F3130545F4E2
:10083000801C0CFB023300FB083E8B46A4F2F33411
:10084000810A930A41EA8C5143EA88530194A1FB3F
:1008500003474FEA9C2505FB03734FEA982601FBEB
:1008600006373D05260545EA1435BBEB06016EEB60
:100870000503850E920E45EA8C1542EA8812A5FB07
:100880000206261E67EB00070C0D44EA0334A61986
:1008900047EB1350C1F313044FF000031946E5FB77
:1008A00002014FEA033343EA14534FEA0432019C36
:1008B00043EA0603A4F10C040294009CCDE900A4D1
:1008C00000F097F9A3E72DE9F04D81EA030404F065
:1008D0000044A34621F000474FF0000C1446E246C6
:1008E00023F0004150EA070220D054EA01021DD053
:1008F000C1F30A550246C1F31300C7F30A56C7F302
:10090000130340F4801143F48013A6EB0508101B79
:10091000D64608F2FD3873EB010002D308F1010856
:1009200001E092185B41B8F1000F03DA00200146A4
:10093000BDE8F08D00204FF48015064607460EE016
:10094000B2EB040C73EB010C04D3121B064363EBF4
:1009500001032F436D084FEA300092185B4150EAC3
:10096000050CEDD152EA030012D082EA040083EABA
:100970000105284303D100224FF0004308E0101B7B
:100980008B4102D20122002302E06FF001025310DA
:100990001AEB060047EB085110EB0A0041EB0B0184
:1009A000BDE8F04D00F018B90EB5C10F80EAE07057
:1009B0000844CA07002140F233438DE80E000A467E
:1009C0000B4600F016F903B000BD70B5C1F30A5232
:1009D00001F000450024C1F3130140F2FF3341F45C
:1009E00080119A4201DA002070BD40F233439A42EE
:1009F000A2F2334203DC524200F085F800E090405E
:100A00002C43F1D0404270BD30B5002904DB4FF0DB
:100A10000044404264EB0101002B05DB4FF0004431
:100A2000524264EB030423468B4208BF824230BD2E
:100A300030B5002904DB4FF00044404264EB010173
:100A4000002B05DB4FF00044524264EB03042346C5
:100A5000994208BF904230BD30B50B460146002098
:100A60002022012409E021FA02F59D4205D303FA70
:100A700002F5491B04FA02F52844151EA2F10102F1
:100A8000F1DC30BD2DE9F05F0546002092469B4623
:100A900088460646814640241CE028464146474693
:100AA000224600F030F852465B46801A994111D335
:100AB00010461946224600F017F82D1A67EB010779
:100AC000B8464F4622460120002100F00DF83818A4
:100AD0004E418146201EA4F10104DEDC4846314629
:100AE0002A464346BDE8F09F202A04DB203A00FA5C
:100AF00002F1002070479140C2F1200320FA03F375
:100B0000194390407047202A04DB203A21FA02F072
:100B10000021704721FA02F3D040C2F12002914037
:100B2000084319467047202A06DBCB17203A41FAC2
:100B300002F043EAE07306E041FA02F3D040C2F16A
:100B4000200291400843194670473A2800D23038B5
:100B500020F02002412A01D3A2F137004FF0FF32EA
:100B6000884200D2024610467047000002681144D5
:100B700013780160184670470B461146044A4A61D3
:100B8000044A0A620022C1E9033200F085B900007C
:100B90006D0B000819010008426842B1016811F8A4
:100BA000013B23B1521EC0E90012184670470121D3
:100BB000C160881E7047416859B1C368026843B973
:100BC0008368934205D0521E491CC0E900210020D1
:100BD00070474FF0FF30704710B5002B08DA401C0B
:100BE00041F1000192185B411A4301D120F001004C
:100BF00010BD2DE9FF4D934611B1B1FA81F202E02B
:100C0000B0FA80F220329246FFF76EFF039A074651
:100C1000884640EA0B0011435B46084304D138463E
:100C2000414604B0BDE8F08D114653EA010018D0EA
:100C3000CAF140025846FFF766FF04460D464FF0E2
:100C40000106584652460399FFF74EFF084300D16C
:100C50000026344345EAE6753C4345EA0805274645
:100C6000A8460E984FF00005A0EB0A014FEAD720E6
:100C70000A314FEA47532A4640EA48504FEAD824FF
:100C800002D500200146CCE7281844EB0151DDE9EC
:100C90000C45001904B06941BDE8F04D9CE770B502
:100CA00021F0004303430CD0C1F30A540026D4EBD7
:100CB000060566EB0603D417AD1AA34102DB00203C
:100CC000014670BD001C41EB025170BD2DE9F04D95
:100CD00000231A461B1A8A4103DB00200146BDE8A7
:100CE000F08DC1F30A52C1F3130141F480154FF0A6
:100CF000000BD10702D100186D41521E002740F2AF
:100D0000FF11044601EB620138468A463E468046A2
:100D1000024600204FF48011FFF7F5FEC019714123
:100D20003B1846EB0102B4EB030C75EB020C04D349
:100D3000E41A65EB020507460E46241908F1010086
:100D40006D4180463428E3DDF81946EB06014FF08B
:100D5000FF32001B1346A94101D3002213461BEBAF
:100D6000070046EB0A51BDE8F04DFFF735BF2DE90E
:100D7000FE4FC3F30A5801F000450024C1F30A56A0
:100D8000C3F31303C1F3130143F4801312EB020CFA
:100D9000A8F10108A64641F480119246009543EB64
:100DA0000307C34613E0B0EB0C00B94107D54FF081
:100DB0000008D0EB080085F0004568EB0101BAEBB4
:100DC000000273EB0102EED3761E001849415E4526
:100DD000F5DA50EA010204D10099204603B0BDE8DB
:100DE000F08FCDE900E5002213460296FFF701FFE0
:100DF000F4E70EB540F2334202920022CDE9002220
:100E00001346FFF7F6FE03B000BDC1F30A52C1F36B
:100E1000130140F2FF3341F480119A4202DA0020BC
:100E20000146704740F233439A42A2F2334202DC59
:100E30005242FFF768BEFFF757BE01F0004230B4E0
:100E400021F0004150EA010306D00B0DA3F56073B9
:100E5000C1F31301002B02DC30BC00207047440FAB
:100E600044EAC104C100A01830BC00EBC35000F03C
:100E7000AFB90000064C074D06E0E06840F0010302
:100E800094E8070098471034AC42F6D3FFF732F9E4
:100E9000209B0108409B01082DE9F34F002080466C
:100EA00001208BB082460A9001F10C000C4600260E
:100EB0000DF1080B0190626901210198904705002E
:100EC0002DD0252D2CD0216A8847C0B1626901211F
:100ED00001989047216A88470028F7D1411E62692E
:100EE0000198904700E0761CA1690B988847216A19
:100EF00088470028F7D1E1690B988847DBE7A169AB
:100F00000B9888470746A84201D1761CD3E7E169D0
:100F10000B9888477F1C02D1B8F1000F72D016E100
:100F2000002762693D463946019890472A2804D136
:100F300062690121019890470125DFF8909262696A
:100F4000012101989047A0F130020A2A0DD2BAF18E
:100F5000000F0AD04F45E2DC07EB870100EB4107A9
:100F6000303FDCD445F01005E9E7E90601D46FF025
:100F700000476C280AD04C2814D0682815D06A285D
:100F80000DD074281CD07A281AD01DE06269012186
:100F9000019890476C2802D045F0040514E045F014
:100FA00002050DE045F020050AE062690121019883
:100FB0009047682802D045F0080505E045F4006533
:100FC0006269012101989047C4E90157652842D020
:100FD00019DC58287ED00CDC45283CD004DC2528C0
:100FE00026D0412831D136E0462834D047282CD1AC
:100FF00031E05B287BD061282DD0632877D064282E
:1010000023D15EE022E06F284CD008DC662822D095
:10101000672820D0692826D06E2816D12CE07028A9
:1010200049D073286CD075284BD078280DD151E069
:10103000A1690B988847054625283FF466AFE1690A
:101040000B9888476D1C3FF467AF80E04FF0FF308E
:101050000DB0BDE8F08F23466A466FF001000B9992
:10106000FFF7EEF99DE045F040006060A8072346D9
:101070004FF0000235D43DE0206800F1040121600A
:101080000068290501D5067015E7290701D50680F6
:1010900011E7A90704D54FEAE671C0E900610AE744
:1010A000066008E745F040006060A80723464FF05F
:1010B000080216D41EE040F60E0125EA0100606029
:1010C00016E045F040006060A80723464FF00A0292
:1010D00007D40FE045F040006060A80708D523461C
:1010E00010226FF001000B99AFF3008059E007E088
:1010F000234610226FF001000B99FFF76FF850E0C4
:101100000027B9463B46632802D05B2807D040E061
:10111000E80601D4C4F808A00120814639E06269DC
:101120000121019890475E2804D101276269394660
:1011300001989047216931B900235A4642F821307D
:10114000491C0829FADB10B1216911B10FE04046B2
:101150007EE7C11700EBD1635A110BEB820123F03C
:101160001F03C31A0A680AFA03F002430A6062699D
:101170000121019890475D28E5D14FB100205946E3
:1011800051F82020D24341F82020401C0828F7DBEA
:1011900002AB2246CDF800906FF001000B99AFF33F
:1011A0000080002808DA4FF0FF31401C01D10A9876
:1011B00000B9414608464BE7E90702D108F10101B1
:1011C0008846064400200A9075E60000CCCCCC0C82
:1011D0000029A8BF7047401C490008BF20F001004B
:1011E000704710B4B0FA80FC00FA0CF050EA010429
:1011F00004BF10BC704749B1CCF1200421FA04F4BB
:1012000011FA0CF118BF012121430843A3EB0C0193
:10121000CB1D0106000A002BBEBF002010BC70478A
:1012200000EBC35010440029A4BF10BC7047401C01
:10123000490008BF20F0010010BC70470EB540F215
:10124000334102910021CDE900110A460B46FFF718
:10125000D0FC03B000BD70B58C1810F8015B15F020
:10126000030201D110F8012B2B1106D110F8013B1C
:1012700003E010F8016B01F8016B521EF9D1B3B114
:1012800010F8012B05F00C058A1A0C2D04D0A2EBE6
:10129000851203F1020308E010F8015BA2EB0522BE
:1012A000F7E712F8015B01F8015B5B1EF9D5A1427B
:1012B000D3D3002070BD70472DE9F04F8BB00646A8
:1012C0000F4614461D46DDE914ABDDE91A892148B5
:1012D0000168006800F101001E4B0A461EA118605B
:1012E0001F48006801F016FD10F008FDCDE90889DF
:1012F00018980690DDE9160132463B468DE8300C21
:10130000CDE9040117A11648006801F003FD21484A
:101310000068012807D12048C0C0204830C02048BC
:10132000C0E9008912E01B480068022807D11A486A
:10133000C0E900891948C0C0194830C006E0164805
:1013400030C01648C0E900891548C0C00BB0BDE8E0
:10135000F08F0000540000202535642000000000BC
:10136000240000204152435F4645454428252E3441
:10137000662C20252E34662C20252E34662C202524
:101380002E34662C2025642C20252E3466290D0A47
:101390000000000030000020900000209800002095
:1013A000A0000020704770477047000010B5044649
:1013B0000B480168006800F10100094B0A4609A1C9
:1013C00018600A48006801F0A5FC10F097FC22465E
:1013D00007A10648006801F09DFC0A48046010BDA2
:1013E0005400002025356420000000002400002067
:1013F0004348414E47455F544F4F4C282564290DC3
:101400000A0000003400002010B504460A480168B4
:10141000006800F10100084B0A4608A1186009485D
:10142000006801F077FC10F069FC224606A105482F
:10143000006801F06FFC10BD5400002025356420C9
:101440000000000024000020434F4D4D454E54281D
:1014500022257322290D0A0010B50A480168006888
:10146000401C084B0A4608A118600948006801F0B2
:1014700051FC10F043FC07A10548006801F04AFC4C
:1014800010BD00005400002025356420000000003D
:101490002400002044495341424C455F46454544A1
:1014A0005F4F5645525249444528290D0A00000015
:1014B00010B50A4801680068401C084B0A4608A19C
:1014C00018600948006801F025FC10F017FC07A11E
:1014D0000548006801F01EFC10BD0000540000200B
:1014E00025356420000000002400002044495341B9
:1014F000424C455F53504545445F4F564552524913
:10150000444528290D0A000070477047704770470E
:10151000704770477047000070B504460D460B4891
:101520000168006800F10100084B0A4608A1186034
:101530000948006801F0EEFB10F0E0FB22462B4664
:1015400006A10548006801F0E5FB70BD54000020CD
:101550002535642000000000240000204457454C3D
:101560004C28252E3466290D0A0000007047000023
:1015700010B50A4801680068401C084B0A4608A1DB
:1015800018600948006801F0C5FB10F0B7FB07A11F
:101590000548006801F0BEFB10BD000054000020AB
:1015A000253564200000000024000020454E414203
:1015B0004C455F464545445F4F5645525249444568
:1015C00028290D0A0000000010B50A4801680068CB
:1015D000401C084B0A4608A118600948006801F041
:1015E00099FB10F08BFB07A10548006801F092FB06
:1015F00010BD0000540000202535642000000000CC
:1016000024000020454E41424C455F53504545441F
:101610005F4F5645525249444528290D0A000000A3
:101620007047704770477047704770477047704702
:1016300004490A6822F010020A600A6802430A603C
:10164000704700000020024004490A6802F0380296
:101650000A600A6802430A607047000000200240E6
:1016600010B50C4801680068401C0A4B0A460AA1E4
:1016700018600B48006801F04DFB10F03FFB09A11A
:101680000748006801F046FB4FF000000949086078
:1016900010BD00005400002025356420000000002B
:1016A00024000020464C4F4F445F4F464628290DEA
:1016B0000A0000004000002010B50C4801680068D6
:1016C000401C0A4B0A460AA118600B48006801F04A
:1016D00021FB10F013FB09A10748006801F01AFB79
:1016E0004FF001000949086010BD000054000020BF
:1016F000253564200000000024000020464C4F4F98
:10170000445F4F4E28290D0A0000000040000020D1
:10171000014903C9704700003800002001480068F3
:10172000704700004000002001480068704700003A
:101730005000002001480068704700005800002059
:1017400001480068704700005C00002070B5044646
:101750000D460748FEF7F7FCA84204D2044920468C
:10176000FEF707FD02E04FF00000207070BD0000A2
:101770003809002001480068704700003000002050
:10178000014903C97047000090000020014903C9C6
:101790007047000098000020014903C9704700000D
:1017A000A0000020014903C970470000600000202C
:1017B000014903C97047000068000020014903C9BE
:1017C00070470000700000200020014970470000B1
:1017D0000000F03F01207047014903C97047000035
:1017E000B00000200148006870470000B8000020E9
:1017F0000148006870470000A80000200148006808
:101800007047000034000020014903C97047000000
:10181000C000002008B54FF40070ADF800004FF094
:1018200018008DF803004FF003008DF802006946A0
:10183000074800F00FF84FF48060ADF800004FF05B
:1018400004008DF803006946014800F003F808BD64
:1018500000080140F0B5CB780022DC0603F00F034E
:1018600001D58C7823430C880F2714F0FF0F4FF01D
:10187000010C1CD0D0F800500E880CFA02F426405F
:10188000A64210D1960007FA06FE25EA0E0E03FACC
:1018900006F5CE7845EA0E05282E00D14461CE78B3
:1018A000482E00D10461521C082AE5D305600A883D
:1018B000FF2A1ED94568002202F108060CFA06F438
:1018C0000E882640A64210D1960007FA06FE25EAA9
:1018D0000E0E03FA06F5CE7845EA0E05282E00D145
:1018E0004461CE78482E00D10461521C082AE3D30B
:1018F0004560F0BD7047704770477047704770474C
:1019000010B504460A480168006800F10100084B60
:101910000A4608A118600948006801F0FBF910F0B8
:10192000EDF9224606A10548006801F0F3F910BD63
:101930005400002025356420000000002400002011
:101940004D4553534147452822257322290D0A004E
:1019500010B50C4801680068401C0A4B0A460AA1F1
:1019600018600B48006801F0D5F910F0C7F909A11B
:101970000748006801F0CEF94FF0000009490860FF
:1019800010BD000054000020253564200000000038
:10199000240000204D4953545F4F464628290D0A24
:1019A000000000005800002010B50C4801680068D5
:1019B000401C0A4B0A460AA118600B48006801F057
:1019C000A9F910F09BF909A10748006801F0A2F9F4
:1019D0004FF001000849086010BD000054000020CD
:1019E0002535642000000000240000204D49535498
:1019F0005F4F4E28290D0A0058000020704770479D
:101A000010B500214FF0006000F002F810BD00009A
:101A1000024A1140014302480160704780FFFF1FE6
:101A200008ED00E010B50A4801680068401C084B4A
:101A30000A4608A118600948006801F06BF910F027
:101A40005DF907A10548006801F064F910BD0000C8
:101A500054000020253564200000000024000020F0
:101A60004F5054494F4E414C5F50524F4752414D99
:101A70005F53544F5028290D0A000000F8B5044662
:101A80000D4616460E480168006800F101000C4B37
:101A90000A460CA118600D48006801F03BF910F0EF
:101AA0002DF9022E01D10AA000E00DA022462B46FE
:101AB00011A100900548006801F02CF9F8BD000064
:101AC0005400002025356420000000002400002080
:101AD00043414E4F4E5F434C4F434B574953450094
:101AE00043414E4F4E5F434F554E544552434C4F2A
:101AF000434B5749534500004F5249454E545F539D
:101B000050494E444C4528252E34662C20257329F7
:101B10000D0A000010B50A4801680068401C084B17
:101B20000A4608A118600948006801F0F3F810F0AF
:101B3000E5F807A10548006801F0ECF810BD0000C9
:101B400054000020253564200000000024000020FF
:101B500050414C4C45545F53485554544C452829EA
:101B60000D0A000010B50A4801680068401C084BC7
:101B70000A4608A118600948006801F0CBF810F087
:101B8000BDF807A10548006801F0C4F810BD0000C9
:101B900054000020253564200000000024000020AF
:101BA00050524F4752414D5F454E4428290D0A007F
:101BB00010B50A4801680068401C084B0A4608A195
:101BC00018600948006801F0A5F810F097F807A11F
:101BD0000548006801F09EF810BD00005400002088
:101BE00025356420000000002400002050524F479B
:101BF00052414D5F53544F5028290D0A00000000F8
:101C000070477047044A0029916901D0014300E000
:101C100081439161704700000010024010B500F050
:101C20003BF84FF4803000F0C9F800F011F9194981
:101C3000087008460078012826D1002000F0B4F88A
:101C4000002000F0E1F84FF4806000F0D3F80220AB
:101C5000FFF7FAFC1020FFF7EBFC4FF4E0114FF414
:101C6000803000F0E1F8012000F0D8F800BF392002
:101C700000F07AF80028FAD0022000F0DFF800BF68
:101C800000F08AF80828FBD1012144F20400FFF794
:101C9000B9FF10BD2C0000200B48016841F0010184
:101CA00001604168094A114041600168084A1140D9
:101CB0000160016821F4802101604268002122F462
:101CC000FE02426081607047001002400000FFF891
:101CD000FFFFF6FE30B5204A5168204B11F00C0191
:101CE00003D0042901D0082901D0036011E0516814
:101CF000022401F4701104EB91415468184D14F45E
:101D0000803F02D05468A40301D5694300E05943E1
:101D100001605168134B01F0F00109095C5C016836
:101D2000E1404160546804F4E064240A1C5D21FA37
:101D300004F48460546804F46054E40A1B5DD940E0
:101D4000C1605268074B02F44042920B1B1F9A5C21
:101D5000B1FBF2F1016130BD0010024000127A00C7
:101D600000093D00B87E0108034600205909094AD0
:101D7000012901D1116804E0022901D1116A00E0B2
:101D8000516A03F01F02012393400B4200D001204F
:101D900070470000001002400248406800F00C004C
:101DA0007047000000100240034A516821F0F00122
:101DB0000143516070470000001002400B490A685F
:101DC00022F480320A600A68B0F5803F22F4802253
:101DD0000A6007D0B0F5802F03D1086840F4A02036
:101DE00008607047086840F48030F9E7001002404E
:101DF00070470000034A516821F4E06101435160DB
:101E00007047000000100240034A516821F46051FD
:101E100041EAC00050607047001002400149086666
:101E20007047000000004242034B5A68084322F406
:101E30007C1210435860704700100240034A5168FA
:101E400021F003010143516070470000001002407F
:101E500030B50B4C40F2FF153120FFF785FF2070A5
:101E60006068401C6060207810B96068A842F3D1B7
:101E70003120FFF779FF002800D0012030BD00009D
:101E8000200900207047704710B5044612480168C9
:101E9000006800F10100104B0A4610A118601148BB
:101EA000006800F037FF0FF029FF012C01D10EA0D0
:101EB00008E0022C01D10DA004E0032C01D10CA0FC
:101EC00000E00CA002460DA10648006800F022FFC9
:101ED0001248046010BD0000540000202535642025
:101EE000000000002400002058590000595A00004A
:101EF000585A0000554E4B4E4F574E0053454C45D7
:101F000043545F504C414E452843414E4F4E5F5025
:101F10004C414E455F2573290D0A0000300000201A
:101F200010B504460A480168006800F10100084B3A
:101F30000A4608A118600948006800F0EBFE0FF09F
:101F4000DDFE224606A10548006800F0E3FE10BD54
:101F500054000020253564200000000024000020EB
:101F600053454C4543545F544F4F4C282564290D2D
:101F70000A00000070B504460D460C480168006870
:101F800000F10100094B0A4609A118600A480068DF
:101F900000F0C0FE0FF0B2FE22462B4607A1064815
:101FA000006800F0B7FE0B4830C070BD5400002040
:101FB0002535642000000000240000205345545FB4
:101FC000464545445F5241544528252E3466290D27
:101FD0000A0000003800002010B504460D480168D2
:101FE000006800F101000B4B0A460BA118600C4879
:101FF000006800F08FFE0FF081FE012C01D109A0D6
:1020000000E00CA002460EA10548006800F082FE28
:1020100010BD0000540000202535642000000000A1
:102020002400002043414E4F4E5F574F524B5049C2
:102030004543450043414E4F4E5F58595A000000FA
:102040005345545F464545445F5245464552454ECB
:102050004345282573290D0A0000000010B50446E9
:10206000012C16D12E4801680068401C2C4B0A46F2
:102070002CA118602D48006800F04CFE0FF03EFEC9
:102080002BA12A48006800F045FE2046334908602D
:1020900044E0022C16D1224801680068401C204B05
:1020A0000A4620A118602148006800F033FE0FF0B6
:1020B00025FE2BA11D48006800F02CFE2046274974
:1020C00008602BE0032C16D1154801680068401CFD
:1020D000134B0A4613A118601448006800F01AFE5A
:1020E0000FF00CFE29A11148006800F013FE2046F5
:1020F0001A49086012E00A4801680068401C084B51
:102100000A4608A118600948006800F003FE0FF0B5
:10211000F5FD29A10548006800F0FCFD10BD000098
:102120005400002025356420000000002400002019
:102130005345545F4D4F54494F4E5F434F4E545299
:102140004F4C5F4D4F44452843414E4F4E5F4558DD
:102150004143545F53544F50290D0A005C00002046
:102160005345545F4D4F54494F4E5F434F4E545269
:102170004F4C5F4D4F44452843414E4F4E5F4558AD
:102180004143545F50415448290D0A005345545F60
:102190004D4F54494F4E5F434F4E54524F4C5F4D3D
:1021A0004F44452843414E4F4E5F434F4E54494E96
:1021B000554F5553290D0A005345545F4D4F54490F
:1021C0004F4E5F434F4E54524F4C5F4D4F44452846
:1021D000554E4B4E4F574E290D0A00002DE9FF5F1B
:1021E00006460F4614461D46DDE90E892348016860
:1021F000006800F10100214B0A4621A11860224825
:10220000006800F087FD0FF079FD32463B461FA1C4
:102210001D488DE83003006800F07CFD2548264904
:102220000CC803C9FEF736FA824632463B46FEF733
:10223000D3FA214A03C2214821490CC803C9FEF739
:1022400029FA824622462B46FEF7C6FA1C4A03C2EA
:102250001C481D490CC803C9FEF71CFA82464246B9
:102260004B46FEF7B9FA184A03C21248C0C01348D9
:1022700030C01448C0E90089BDE8FF9F5400002029
:102280002535642000000000240000205345545FE1
:102290004F524947494E5F4F4646534554532825B0
:1022A0002E34662C20252E34662C20252E346629CB
:1022B0000D0A00007800002090000020800000201F
:1022C0009800002088000020A000002070B504467F
:1022D0000D460C480168006800F10100094B0A46F0
:1022E00009A118600A48006800F014FD0FF006FD0F
:1022F00022462B4607A10648006800F00BFD0C485B
:1023000030C070BD5400002025356420000000005E
:10231000240000205345545F5350494E444C455FC0
:10232000535045454428252E3466290D0A000000E7
:10233000B00000207047704710B50A480168006877
:10234000401C084B0A4608A118600948006800F0C4
:10235000E1FC0FF0D3FC07A10548006800F0DAFCAF
:1023600010BD00005400002025356420000000004E
:102370002400002053544152545F53504545445F5C
:10238000464545445F53594E434828290D0A0000ED
:1023900010B5114801680068401C0F4B0A460FA198
:1023A00018601048006800F0B5FC0FF0A7FC0EA103
:1023B0000C48006800F0AEFC00221346114903C926
:1023C000FEF722FB02D14FF0010001E04FF00200C6
:1023D0000D49086010BD0000540000202535642020
:1023E000000000002400002053544152545F535019
:1023F000494E444C455F434C4F434B574953452846
:10240000290D0A00B0000020B800002010B51148C6
:1024100001680068401C0F4B0A460FA11860104865
:10242000006800F077FC0FF069FC0EA10C48006812
:1024300000F070FC00221346134903C9FEF7E4FACA
:1024400002D14FF0010001E04FF003000F49086096
:1024500010BD00005400002025356420000000005D
:102460002400002053544152545F5350494E444C71
:10247000455F434F554E544552434C4F434B57498C
:10248000534528290D0A0000B0000020B8000020A4
:1024900010B50A4801680068401C084B0A4608A1AC
:1024A00018600948006800F035FC0FF027FC07A110
:1024B0000548006800F02EFC10BD0000540000200C
:1024C00025356420000000002400002053544F50A4
:1024D0005F53504545445F464545445F53594E431D
:1024E0004828290D0A00000010B50C480168006852
:1024F000401C0A4B0A460AA118600B48006800F00D
:1025000009FC0FF0FBFB09A10748006800F002FC82
:102510004FF001000C49086010BD0000540000207D
:1025200025356420000000002400002053544F5043
:102530005F5350494E444C455F5455524E494E47A7
:1025400028290D0A00000000B80000202DE9FF47EF
:1025500006460F4614461D46DDE90C891048016801
:10256000006800F101000E4B0A460EA118600F48EA
:10257000006800F0CFFB0FF0C1FB32463B460CA1D8
:102580000A488DE83003006800F0C4FB1148C0C061
:10259000114830C01148C0E90089BDE8FF8700003C
:1025A0005400002025356420000000002400002095
:1025B00053545241494748545F4645454428252EC7
:1025C00034662C20252E34662C20252E3466290DC9
:1025D0000A0000009000002098000020A0000020C9
:1025E0002DE9F04F93B006460F4614461D46DDE92F
:1025F0001C8965480CC830463946FEF7F0F8CDE92D
:10260000100122462B46614903C9FEF7E5F8CDE9E2
:102610000E0142464B465E4903C9FEF7DDF8CDE99F
:102620000C01DDE90C2310461946FEF7DBF8CDE975
:102630000601DDE90E2310461946FEF7D3F8CDE971
:102640000201DDE9102310461946FEF7CBF8CDE96B
:102650000001DDE90223FEF71DF8CDE90401DDE903
:102660000623FEF717F8CDE9080114F0E7F88246D3
:102670008B4648480168006800F10100454B0A4656
:1026800045A118604648006800F044FB0FF036FB97
:1026900032463B4643A142488DE83003006800F0D3
:1026A00039FB4948C0C0494830C04948C0E90089A1
:1026B0000022134650465946FEF7A6F90ED132497C
:1026C00003C9314A03C23148D0E900102F4AC2E998
:1026D00000102F4903C92E4A03C252E03D4800684A
:1026E000022802D13C493D4801E03D493D48CDE941
:1026F0000A1052465B46DDE91001FEF7E4F8CDE929
:102700000601DDE90A100A460346DDE90601FEF787
:1027100069F832463B46CDE90801FDF7BBFF1A4A8E
:1027200003C252465B46DDE90E01FEF7CCF8CDE967
:102730000601DDE90A100A460346DDE90601FEF757
:1027400051F822462B46CDE90801FDF7A3FF0F4AB9
:1027500003C252465B46DDE90C01FEF7B4F8CDE951
:102760000601DDE90A100A460346DDE90601FEF727
:1027700039F842464B46CDE90801FDF78BFF044A84
:1027800003C213B0BDE8F08F900000209800002035
:10279000A000002054000020253564200000000027
:1027A0002400002053545241494748545F50524F2F
:1027B000424528252E34662C20252E34662C2025D3
:1027C0002E3466290D0A00006000002068000020F9
:1027D0007000002050000020A8C64B378941D03F30
:1027E0007B14AE47E17A843F2DE9FF4706460F464A
:1027F00014461D46DDE90C8910480168006800F1A7
:1028000001000E4B0A460EA118600F48006800F048
:1028100081FA0FF073FA32463B460CA10A488DE864
:102820003003006800F076FA1248C0C0124830C089
:102830001248C0E90089BDE8FF870000540000206D
:10284000253564200000000024000020535452412C
:10285000494748545F545241564552534528252E06
:1028600034662C20252E34662C20252E3466290D26
:102870000A0000009000002098000020A000002026
:102880007047704770477047704770477047704790
:102890007047704710B50A4801680068401C084B33
:1028A0000A4608A118600948006800F033FA0FF0E2
:1028B00025FA07A10548006800F02CFA10BD0000B9
:1028C0005400002025356420000000002400002072
:1028D0005455524E5F50524F42455F4F464628294D
:1028E0000D0A000010B50A4801680068401C084B3A
:1028F0000A4608A118600948006800F00BFA0FF0BA
:10290000FDF907A10548006800F004FA10BD0000B9
:102910005400002025356420000000002400002021
:102920005455524E5F50524F42455F4F4E28290D2D
:102930000A00000070477047704730B5028A4FF2B6
:10294000FF031A400B884D888C88C9882B430C43A1
:1029500023431343038230BD0029818902D041F40F
:10296000005101E021F400518181704700B587B02A
:102970004FF00000ADF80400ADF806004FF4007011
:10298000ADF808004FF00000ADF80A0001A90F48AB
:10299000FFF7D3FF4FF4E13003904FF00000ADF8A4
:1029A0001000ADF81200ADF81400ADF818004FF0AB
:1029B0000C00ADF8160003A9044800F011F801213D
:1029C0000248FFF7C9FF07B000BD00000038014012
:1029D0000246128800200A4200D001207047000001
:1029E00030B50446008A85B00D464CF6FF710840AC
:1029F000E98801432182A0894EF6F3110840A98895
:102A00002A8911436A8902431143A181A08A4FF6A2
:102A1000FF410840A9890143A1826846FFF75AF99E
:102A20001048844201D1039800E0029819214843DC
:102A3000296864228900B0FBF1F0B0FBF2F10901D2
:102A40000B096FF018056B43322500EB830005EB93
:102A50000010B0FBF2F000F00F000843208105B039
:102A600030BD000000380140C1F30801818070478B
:102A7000704770477047000010B50446012C56D1CE
:102A8000624801680068401C604B0A4660A11860FB
:102A90006148006800F03EF90FF030F95FA15E4830
:102AA000006800F037F96748006802283ED14FF00F
:102AB0000100644908604FF066316348634AC2E927
:102AC00000100A460346624903C9FDF7FCFE604A4E
:102AD00003C24FF066325C4B5E4903C9FDF7F3FE5B
:102AE0005C4A03C24FF06632574B5B4903C9FDF79E
:102AF000EAFE594A03C24FF06632534B574903C9A5
:102B0000FDF7E1FE554A03C24FF066324E4B544981
:102B100003C9FDF7D8FE524A03C24FF066324A4B52
:102B2000504903C9FDF7CFFE4E4A03C26CE0022CA8
:102B300057D1364801680068401C344B0A4634A11E
:102B400018603548006800F0E5F80FF0D7F846A1A6
:102B50003148006800F0DEF83A480068012853D197
:102B60004FF00200374908604FF000014748374AEC
:102B7000C2E900104FF06632334B354903C9FDF707
:102B800031FE334A03C24FF066322F4B314903C93D
:102B9000FDF728FE2F4A03C24FF066322A4B2E491A
:102BA00003C9FDF71FFE2C4A03C24FF06632264BC5
:102BB0002A4903C9FDF716FE284A03C24FF06632C0
:102BC000214B274903C9FDF70DFE254A03C24FF0EB
:102BD00066321D4B234903C9FDF704FE214A03C297
:102BE00012E00A4801680068401C084B0A4608A128
:102BF00018600948006800F08DF80FF07FF824A1F4
:102C00000548006800F086F810BD00005400002060
:102C10002535642000000000240000205553455F46
:102C20004C454E4754485F554E4954532843414EF6
:102C30004F4E5F554E4954535F494E4348455329C3
:102C40000D0A000050000020666639404800002050
:102C500078000020800000208800002090000020E4
:102C600098000020A00000205553455F4C454E477A
:102C700054485F554E4954532843414E4F4E5F557B
:102C80004E4954535F4D4D290D0A00000000F03F9E
:102C90005553455F4C454E4754485F554E49545334
:102CA00028554E4B4E4F574E290D0A0070B504461D
:102CB0000D460B480168006800F10100084B0A4608
:102CC00008A118600948006800F024F80FF016F811
:102CD00022462B4606A10548006800F01BF870BD8F
:102CE000540000202535642000000000240000204E
:102CF0005553455F544F4F4C5F4C454E4754485FCA
:102D00004F464653455428252E3466290D0A0000A7
:102D1000704770470FB4024610B504A9034B0398DF
:102D200000F04AFD10BC5DF814FB000079030108B7
:102D30000FB4084B10B504A902AA039800F03CFD9B
:102D4000044602A9002001F0F5F8204610BC5DF809
:102D500014FB0000353F0008490050EAC12018BFAD
:102D600004204A0D18BF40F0010040F2FF72B2EBA0
:102D7000515F08BF40F00200012808BF05207047DE
:102D80002DE9F74F144696B00021C4E902111799B6
:102D9000099121F00045C9498D4206DC1799C4E923
:102DA000000119B00020BDE8F08FC549DFF814A379
:102DB000A9423CDD0999C44E0029C44FC44A179961
:102DC000534619DDFDF708FD554506D0C14AC24BF3
:102DD000FDF702FDC4E900010AE04FF0D352BE4BFB
:102DE000FDF7FAFC32463B46FDF7F6FCC4E900016C
:102DF00019B00120BDE8F08FFDF74CFC554506D019
:102E0000B44AB54BFDF746FCC4E900010AE04FF0B7
:102E1000D352B14BFDF73EFC32463B46FDF73AFC40
:102E2000C4E9000119B04FF0FF30BDE8F08FAB49A5
:102E30008D42179978DC21F000488346A84AA94BB7
:102E40004146FDF7CFFC0022A74BFDF723FCFDF721
:102E5000BCFD0A90FDF7A8FD07460E469C4A534666
:102E6000FDF7C0FC43465A46FDF7B9FC824688464A
:102E7000984A994B38463146FDF7B4FC2A0D012596
:102E80000C9252464346FDF7AAFC032DC4E900010B
:102E900039D00C98C1F30A51401A05EB451111398C
:102EA000884230DD9148D346784400EB0510CDF8D8
:102EB00000800D90D0E9002338463146FDF792FCA2
:102EC000CDE9040102460B4658460099FDF784FC03
:102ED0008246884602460B4658460099FDF77CFC20
:102EE000DDE90423FDF778FC83460D980491314613
:102EF000D0E902233846FDF775FC5A46049BFDF7DE
:102F00006BFC6D1CBDE709980028A2BF0A9819B098
:102F1000BDE8F08F616881F0004161600A9819B0E6
:102F20004042BDE8F08FFFE784461798C1F31301D4
:102F3000C0F30A5041F48011A0F2F530059141111F
:102F400000F01F0ACAF1200012900020109011908A
:102F50006748784400EB810000F1140311A84FF09A
:102F6000060819685D6801FA0AF21299076825FADD
:102F700001F11143059AA1FB0256A1FB0C21174454
:102F80000D44974234BF4FF0010B4FF0000B50F847
:102F9000042C05EB0B0E72448D4234BF012100213D
:102FA0003144BBF1000F02D0AA4202D903E0AA4289
:102FB00001D2012500E000252944076040E9021202
:102FC0001B1F001FB8F10108CBD10C980F9F00F117
:102FD0000050800F12900C98DDE90D568000FDF72F
:102FE000E3FCCDE908012846FEF728F96FF01D0241
:102FF000FDF755FECDE906013046FEF71FF96FF0EB
:103000003D02FDF74CFE82468B463846FEF716F928
:103010006FF05D02FDF743FE0746884602460B4609
:1030200059465046FDF736FBDDE90623FDF732FB36
:10303000DDE90823FDF72EFBDDE9082300250E4618
:103040002846FDF7C9FBDDE90623FDF7C5FB5B4616
:103050005246FDF7C1FB3A464346FDF7C0FBDFF899
:1030600098A0244A5346FDF7BDFB07468846234AED
:10307000234B31462846FDF7B5FB3A464346FDF75C
:1030800009FB074688464FF0A8425346314628467A
:10309000FDF7A8FB3A464346FDF7FCFA179A12F0F3
:1030A000004F04D0129A81F0004152421292C4E9BA
:1030B0000001129819B0BDE8F08F0000FB21E93F34
:1030C0007CD90240FB21F93F7370032E8A19A33B80
:1030D000000040543163621A61B4D03DFB21394194
:1030E00083C8C96D305FE43F0000E03F2C5301000E
:1030F000B2520100182D4454FB21F93D3326A6118C
:10310000460B113C2DE9FF4D21F0004807460C46C7
:10311000B8F1795F08DAFDF758FC002801BF0020FC
:10312000324904B0BDE8F08D3A46234610461946B0
:10313000FDF758FB054602462D480E460B46062174
:10314000784400F05DF82A463346FDF74BFBDDE995
:10315000022382468B4638462146FDF743FB044650
:103160000F4652465B4628463146FDF73BFB22465A
:103170003B46FDF731FB07468A464FF0FF322846B3
:103180003146FDF78CFD1B4A90450ADA3A46534614
:10319000FDF722FB04B00022BDE8F04D134BFDF714
:1031A0001EBB154A4245A8BFA8F500154FF0000404
:1031B000B8BF124D22462B46FDF70EFB0646884649
:1031C00022462B4600200949FDF706FB04460D4622
:1031D0003A46534630464146FDF7FEFA04B02246D1
:1031E0002B46BDE8F04DFDF7FABA00000000F03FB5
:1031F0005C5001003333D33F0000E93F0000D23F71
:103200002DE9F0414F1E00EBC7010446D1E9000152
:1032100015461E4637F006020DD02A463346FDF706
:10322000E1FA7F1E04EBC703D3E90023FDF732FA6E
:1032300037F00602F1D1022F25D0042F13D0062F2C
:1032400018BFBDE8F0812A463346FDF7CBFAD4E932
:103250000A23FDF71FFA2A463346FDF7C3FAD4E9DD
:103260000823FDF717FA2A463346FDF7BBFAD4E9DF
:103270000623FDF70FFA2A463346FDF7B3FAD4E9E1
:103280000423FDF707FA2A463346FDF7ABFAD4E9E3
:103290000223FDF7FFF92A463346FDF7A3FAD4E9E6
:1032A0000023BDE8F041FDF7F5B900002DE9FF4D21
:1032B000054621F0004084B00C46B0F1795F0BDA8E
:1032C0002846FFF749FD042808BF00F0A5F9284665
:1032D00008B02146BDE8F08D2A460B46104621462F
:1032E000FDF780FA06460F462A462346FDF77AFA8E
:1032F000804627488A4632463B4605217844FFF7F8
:103300007FFF83461098029160B3224A224B4046C9
:103310005146FDF767FACDE900015A46404651464D
:10332000029BFDF75FFA82468846DDE906014FF011
:10333000FF32FDF7B4FC52464346FDF74DFA3246E4
:103340003B46FDF74FFADDE90623FDF745FADDE9D7
:103350000023FDF741FA08B02A462346BDE8F04DA8
:10336000FDF73DBA0B465A4630463946FDF73AFA64
:10337000084A094BFDF78EF942465346FDF732FAEB
:1033800008B02A462346BDE8F04DFDF783B900009A
:10339000A04F0100495555555555C5BF2DE9F04D74
:1033A00004468EB0904821F00047164698460D46D8
:1033B0000791874206DA20462946FDF706FB0028DA
:1033C00000F0AE80894887421CDB07980028BCBF0C
:1033D00085F0004588F00048854A864B20462946FE
:1033E000FDF7FDF904460D463246434682488349BF
:1033F000FDF7F2F922462B46FDF74CF9002604466C
:103400000D46B04622462B4610461946FDF7EAF90E
:103410008B46824602460B46FDF7E4F902460890C9
:1034200077480B46059106217844FFF7E9FECDE980
:103430000201744806217844059B089AFFF7E0FED4
:1034400052465B46FDF7CEF90491069052465B4624
:1034500020462946FDF7C6F905910890DDE90201ED
:10346000049B069AFDF716F9059B089AFDF7BAF931
:1034700032464346FDF70EF952465B46FDF7B2F978
:1034800032464346FDF706F980460E465E4A5F4BDC
:1034900005990898FDF7A6F942463346FDF7FAF874
:1034A00082468B4622462B46FDF7F4F880464F486D
:1034B0000E46874216985BDBFDF776FA07464246D2
:1034C00033460491FDF7E6F80091424633460A90F0
:1034D00010461946FDF786F9009B0A9AFDF7F3F9A5
:1034E00052465B46FDF778F922462B46FDF777F901
:1034F0000122FDF7D4FB3A46049BFDF770F9044620
:103500000D460798022101EAA070C0F10100FDF705
:103510004BFA0EB022462B46BDE8F04DFDF762B9DE
:103520001698401C384320430BD01698012812D01F
:103530000EB022462B46BDE8F04D00203449FDF781
:10354000C2B90EB0224625F00043BDE8F04D002080
:103550003049FDF7B8B920462946FFF7FDFB04289E
:1035600008BF00F059F820460EB02946BDE8F08D9E
:10357000012802BF40460EB0BDE8F08D00270B4683
:103580003A4620462946FDF72AF952465B46FDF7A2
:1035900026F905468B464246334600201C49FDF776
:1035A00092F980463A460C4633461046FDF71AF922
:1035B0000022184BFDF76EF806468A462A465B46FF
:1035C00038462146FDF70EF932465346FDF762F8BC
:1035D00042462346FDF706F90EB03A462346BDE8BB
:1035E000F04DFDF757B800000000303E2894E53F4D
:1035F000182D4454FB21E93F075C143326A6813C77
:103600009C4E0100BE4E0100635555555555D53FA2
:103610000000F0BF0000F03F024A00201107FDF754
:103620003EBB000001FDFFFF02E008C8121F08C1F9
:10363000002AFAD170477047002001E001C1121F33
:10364000002AFBD170470000014908607047000064
:10365000340900202DE9FF5FDDE90210020DDDF8DD
:1036600038B001430FD10F9801244AA3012807D095
:1036700000980F9AC0E90031C0E90242BDE8FF9FFF
:103680006FEA0B01F4E7A2F2FF3244F61050424316
:1036900015140F98012810D0A5EB0B00401CB0F1B9
:1036A000000A3E484FF000043B4E8146A04650467B
:1036B000CAF1000717DB074615E0CBF10000EEE783
:1036C000F80707D02246334640464946FDF78AF8B8
:1036D000804689462246334610461946FDF782F851
:1036E00004460E467F10002FEAD1DDE90201BAF14F
:1036F000000F42464B4602DAFDF774F801E0FDF791
:10370000E2F804460E460022254BFDF791F903D856
:103710004FF0FF30014607E00022224B20463146A1
:10372000FCF7B8FFFDF771FB102409E0002C0ADB61
:103730000A220023FDF7A6F9019B30321A55641EB8
:1037400050EA0102F2D1641C019AC4F1110314443D
:103750000F9A012A07D00122084301D15B450DDDF4
:1037600000226D1C0DE0084303D1A3EB0B056D1E79
:1037700009E01120834600200F908AE701DA002239
:103780006D1E002A85D000980F99C0E90231C0E96A
:10379000004573E730000000000024400000F03FC7
:1037A0000000F0430000E03F0146012030390A29C3
:1037B00000D30020704700002DE9FF4F95B006466A
:1037C0009B468946002539E2252801D01799ACE0AF
:1037D0000024FF492746761C4FF0010A02943278F4
:1037E000203A0AFA02F0084202D00443761CF6E7B7
:1037F00030782A2811D06FF02F023078A0F13001F4
:10380000092919D8029944F0020401EB810102EB65
:1038100041010844761C0290EFE7D9F8001009F145
:10382000040081460291002903DA484244F400541E
:10383000029044F00204761C30782E2819D116F834
:10384000010F44F004042A280DD06FF02F013078C6
:10385000A0F13002092A0CD807EB870201EB4202E3
:103860008718761CF3E709F10400D9F80070814647
:10387000761C30786C280FD006DC4C2817D06828CE
:103880000DD06A2814D104E0742810D07A280FD102
:103890000DE044F400140AE044F4801401E044F420
:1038A00040147178814202D1761C04F58014761C94
:1038B00096F800C0BCF1660F10D01ADCBCF1580FAE
:1038C0007AD00CDCBCF1000F77D0BCF1450FF3D0FF
:1038D000BCF1460FF0D0BCF1470F24D1B6E1BCF1EA
:1038E000630F41D0BCF1640F68D0BCF1650F1AD1F1
:1038F000ACE1BCF1700F78D00CDCBCF1670FEDD0FF
:10390000BCF1690F5AD0BCF16E0F12D0BCF16F0F31
:1039100009D1C1E0BCF1730F35D0BCF1750F76D081
:10392000BCF1780F48D0179960465A4690476D1CF5
:1039300082E1C4F3025002280AD003280ED0D9F83D
:10394000001004280ED00D6009F10400814673E1D7
:10395000D9F80010EA17C1E90052F5E7D9F80010CC
:103960000D80F1E70D70EFE7D9F8001009F10400C0
:1039700081468DF800104FF000008DF80100EA46F6
:103980004FF0010007E0D9F8001009F1040081466A
:103990008A464FF0FF3061074FF0000102D410E07B
:1039A00008F101018846B94212DA8045F8DB1AF8BD
:1039B00008100029F4D10BE061E043E128E008F1B0
:1039C000010188468142FADB1AF808100029F6D175
:1039D00002985B46A0EB080721463846179A00F08C
:1039E00092FA284400EB080508E04DE09AF8000040
:1039F0000AF101018A465A4617999047B8F1010029
:103A00008046F3D25B4621463846179A11E134E0EE
:103A10000A210020C4F3025282460091022A08D0F3
:103A200009F10401D9F800008946C117032A08D01A
:103A300009E009F1070020F00702F2E802019146CF
:103A400005E000B2C117042A01D140B2C117002914
:103A500006DA0A460021404261EB02012D2202E013
:103A6000220504D52B228DF80420012203E0E20771
:103A700001D02022F7E7904655E00A2000E0102010
:103A800000218A4600900BE0102000218A4644F075
:103A900004040827009003E00821002082460091DA
:103AA000C4F30252022A08D009F10401D9F8000037
:103AB00089460021032A08D009E009F1070020F017
:103AC0000702F2E80201914605E080B20021042AD3
:103AD00001D1C0B2002100229046220723D5BCF1BB
:103AE000700F29D0009B83F0100353EA0A0309D119
:103AF00050EA010206D030228DF804208DF805C06E
:103B000002229046009B83F0080353EA0A030AD17D
:103B100050EA010201D1620705D530228DF8042058
:103B2000012290467F1E2BA2BCF1580F00D02EA27E
:103B30000C920BAA0B920FE040228DF80420012278
:103B4000DFE75346009AFCF79DFF0C9B9B5C0B9AAA
:103B5000A2F101020B92137050EA0102F1D10B980D
:103B600003A9A1EB000000F120008246600702D506
:103B700024F4803400E0012700205146574501DD40
:103B8000A7EB010000EB0A01009002984144A0EB72
:103B900001000290E00306D45B462146179A029882
:103BA00000F0B1F90544002706E001A85A46C05DBF
:103BB000179990476D1C7F1C4745F6DBE00322D523
:103BC0005B462146179A029800F09DF905441AE0D9
:103BD0000928010030313233343536373839414223
:103BE0004344454600000000303132333435363727
:103BF00038396162636465660000000030205A460F
:103C0000179990476D1C0099481E00900029F5DC1B
:103C100008E00B980B995A460078491C0B911799AC
:103C200090476D1CBAF10001AAF101008246F0DC58
:103C30004AE100F055F9054406F101063078002804
:103C40007FF4C2AD19B02846BDE8F08F600700D4FC
:103C5000062709F1070020F00700F0E80228814656
:103C600008F000439BA0190007D19BA0210504D4B4
:103C70009AA0E10701D1AFF2940028F00043079029
:103C8000BCF1650F11D009DCBCF1450F0DD0BCF1C2
:103C9000460F1AD0BCF1470F7FD136E0BCF1660F5A
:103CA00013D0BCF1670F78D12FE000211120112F24
:103CB00000DA781CCDE900010CA908A8FFF7CAFCBE
:103CC00000207F1CBA46039049E04FF00040CDE948
:103CD000007A04900CA908A8FFF7BCFC0020039010
:103CE0000A9882460B9820B9099907F10100084407
:103CF0008246B7EB0A0004D4C0F1FF300390781C71
:103D00008246AAEB0700009047E0012F00DA012766
:103D100000211120112F00DC3846CDE900010CA94B
:103D200008A8FFF797FC00200390BA46200710D49C
:103D30000A99B94204DA8A4602E0AAF101008246F1
:103D4000BAF1010F05DD0899AAF10100085C3028DD
:103D5000F3D00998B84202DA10F1040F03DA012017
:103D60000090099818E0002806DC014603980844F2
:103D70000390AAEB010005E0401C504503DD0998C3
:103D800000F10100824609990398A1EB000000F1BF
:103D9000010000904FF000400490200705D40098E7
:103DA000504502DB4FF0FF30009000208DF81B00E3
:103DB00004980DF11B07B0F1004F26D00220804679
:103DC0002B200190049800280CDA404204902D200A
:103DD000019007E00A210498FCF73EFE3031049080
:103DE00007F8011DB8F10001A8F101008046F1DCDF
:103DF00004980028EED1791E01980870307800F000
:103E0000200040F0450007F8020D05A8A0EB0700D0
:103E100000F1070080460798007800B1012000EB10
:103E20000A01009801EBE07102984144A0EB010007
:103E3000A0F101000290E00306D45B462146179AE8
:103E4000029800F060F805440798007820B15A46BF
:103E50001799904705F10105E00322D55B462146FD
:103E6000179A029800F04FF805441AE003980028CA
:103E700006DB0A99814203DD0899085C179901E085
:103E8000179930205A46904703986D1C401C0390A8
:103E90000098401E009004D12E205A461799904752
:103EA0006D1CBAF10001AAF101008246DEDC05E0DA
:103EB00017F8010B5A46179990476D1CB8F100018D
:103EC000A8F101008046F3DC5B462146179A029870
:103ED000AFE600002D0000002B00000020000000D5
:103EE0002DE9F0410446002517461E46880405D4F6
:103EF00006E039462020B04705F10105641EF8D5DB
:103F00002846BDE8F0812DE9F04104460025302720
:103F100090461E46C80300D42027880405D506E035
:103F200041463846B04705F10105641EF8D52846DC
:103F3000BDE8F0810A68531C0B60107070470000E8
:103F40002DE9F04D0546DFF8408221F000408F4F0B
:103F500082B00C46404525DBA0EB080129430CD07C
:103F60008B49884201DC11D185B102B02846214637
:103F7000BDE8F04D0122FCF792BE002CC7BF002027
:103F800001468448394602B0BDE8F08D0120FFF7B4
:103F90005BFB02B00022BDE8F04D1346104611460F
:103FA000FCF791BC7C49884244DA7C498142A1BF3C
:103FB00078487B4902B0BDE8F08D2A46234610467A
:103FC0001946FCF70FFC8346024676480E460B4620
:103FD00006217844FFF714F95A463346FCF702FCF1
:103FE000074671488A465A46334604217844FFF70B
:103FF00007F95A463346FCF7F5FB00224346FCF727
:1040000049FB02460B4638465146FCF75CFC2A4603
:104010002346FCF7E7FB654A654BFCF7E0FB2A46C5
:104020002346FCF7DCFB02B05A4ABDE8F04D5C4B7E
:10403000FCF7D5BB002C4FF000024BDA4646434656
:1040400028462146FCF726FB4FF0FF32FCF727FEFF
:104050000446024657480D460B4606217844FFF7B2
:10406000CFF822462B46FCF7BDFB804652488A46D5
:1040700022462B4604217844FFF7C2F822462B46FD
:10408000FCF7B0FB00223346FCF704FB06468B46E8
:104090002046294612F0D2FB04460D4632465B46C6
:1040A00040465146FCF70FFC22462B46FCF79AFB94
:1040B0003E4A3F4BFCF790FB22462B46FCF7EAFAC0
:1040C0000122FCF7ECFD02B03B46BDE8F04D314A61
:1040D000FCF785BB2C4B28462146FCF780FB4FF0B4
:1040E000FF32FCF7DCFD05460E4612F0A7FB002769
:1040F0000C4680463A460B46FCF7CCFA82468B4685
:104100003A46234610461946FCF76CFB2A463346CE
:10411000FCF765FB52465B46FCF7D5FB8246274819
:104120008B462A46334606217844FFF769F82A462B
:104130003346FCF757FBCDE9000121482A463346B8
:1041400004217844FFF75CF82A463346FCF74AFB23
:1041500000220D4BFCF79EFA02460B46DDE90001FA
:10416000FCF7B1FB42462346FCF73CFB52465B465C
:10417000FCF790FA3A462346FCF78CFA02B001228B
:10418000BDE8F04DFCF78BBD0000F03FFB2109407E
:104190000000F07F182D44540000E03F0000603C18
:1041A000FB21F93FF23E0100083F0100075C143398
:1041B00026A6913C683E01007E3E01009C3D010028
:1041C000B23D010070B596B005460E46144600BFDC
:1041D0003BA14048FEF79EFD3FA13E48FEF79AFDF9
:1041E0003068012801D144A000E045A0024645A165
:1041F0003848FEF78FFD032D0BD1206820B949A167
:104200003448FEF787FD19E050A13248FEF782FDE1
:1042100014E0022D12D1206820B956A12D48FEF7D6
:1042200079FD0BE02068012804D15EA12948FEF742
:1042300071FD03E067A12748FEF76CFD71A12548D9
:10424000FEF768FD02A80CF0B5F801AA72A102A859
:10425000FBF7A8FF012800D0BAE70198012800D198
:1042600029E00198022808D1306810B94FF0010008
:1042700001E04FF0000030601CE0019803280AD1F3
:10428000032D08D1206810B94FF0020001E04FF073
:10429000000020600EE0019803280BD1022D09D107
:1042A0002068022802D14FF0000002E0206800F1EF
:1042B000010020608CE700BF002016B070BD000038
:1042C000656E7465722061206E756D6265723A0D5F
:1042D0000A0000002C09002031203D20646F6E652B
:1042E0002077697468206572726F722068616E64ED
:1042F0006C696E670D0A0000646F206E6F74200099
:104300000000000032203D2025737072696E742019
:10431000737461636B206F6E206572726F720D0A29
:104320000000000033203D2073746F70206F6E20FA
:104330006572726F722028646F206E6F7420636FD5
:104340006E74696E7565290D0A00000033203D20EA
:10435000636F6E74696E7565206F6E206572726F23
:10436000722028646F206E6F742073746F70290D33
:104370000A00000033203D206D6469206F6E2065C7
:1043800072726F722028646F206E6F7420636F6E7C
:1043900074696E7565206F722073746F70290D0AD1
:1043A0000000000033203D2073746F70206F6E207A
:1043B0006572726F722028646F206E6F74206D6456
:1043C00069206F7220636F6E74696E7565290D0ABE
:1043D0000000000033203D20636F6E74696E7565C8
:1043E000206F6E206572726F722028646F206E6F6E
:1043F000742073746F70206F72206D6469290D0AC8
:1044000000000000656E7465722063686F69636503
:10441000203D3E2000000000256400002DE9F04F03
:1044200089B08046894616461F46DDE91FABDDE9A7
:104430001A23DDE91201FCF72DF91E9A03C2DDE90A
:104440001C23DDE91401FCF725F9CAE900011AA8CB
:104450000FC80BF0C7FFCDE90601DAE90001CDE98D
:104460000001DDE91823FCF7B7F9CDE904011E9935
:1044700003C9CDE90001DDE91623FCF7ADF9CDE96B
:104480000201DDE904230BF0ADFF04460D46B9F14E
:10449000020F02D1B8F11E0F05D0B9F1010F09D1F9
:1044A000B8F1140F06D132463B4620462946FCF7A8
:1044B00093F905E032463B4620462946FCF7EAF8E8
:1044C00004460D4622462B46DDE90601FCF784F939
:1044D00021F00041CDE90401DDE92223FCF7A8FA2F
:1044E00028D24FF000012F48C0F84C110146D1F8F6
:1044F0004C31D1F84C1101F101010246C2F84C11C6
:1045000003EB8301A0F6546202EB01110846264931
:10451000FBF72FFE4FF000012248D0F84C0100EBD2
:104520008000224A02EB001001704FF0980009B0A1
:10453000BDE8F08FB8F1140F04D14FF0FF30CBF885
:1045400000002DE0B8F11E0F04D14FF00100CBF8B0
:10455000000025E04FF000011248C0F84C11014660
:10456000D1F84C31D1F84C1101F101010246C2F8E9
:104570004C1103EB83010D4A02EB011108460A4975
:10458000FBF7F7FD4FF000010648D0F84C0100EBB7
:104590008000064A02EB001001704FF01400C6E7DD
:1045A0000020C4E7A0D50020E40300204CC7002071
:1045B0002DE9FF5F9AB082468B46DDE9306727F030
:1045C0000040CDE91860DDE91C23DDE91801FCF7A6
:1045D0001BFA34D8BBF1020F02D1BAF11E0F05D07D
:1045E000BBF1010F2BD1BAF1140F28D14FF000010C
:1045F000CF48C0F84C110146D1F84C31D1F84C11DC
:1046000001F101010246C2F84C1103EB8301A0F64F
:10461000546202EB01110846C649FBF7AAFD4FF0B0
:104620000001C348D0F84C0100EB8000C24A02EB05
:10463000001001704FF0A7001EB0BDE8F09FDDE94B
:104640002A23DDE92E01FCF7C7F8CDE90A01DDE9EF
:104650002823DDE92C01FCF7BFF8CDE90801DDE9ED
:104660000A230BF0BFFECDE91401DDE92823DDE9C3
:104670002C01FCF7B1F8CDE90A01DDE92A23DDE9D7
:104680002E01FCF7A9F8CDE90801DDE90A2300F0C5
:1046900001FECDE91601BAF11E0F06D10022134624
:1046A00030463946FCF7C4F909D3BAF1140F0DD1DD
:1046B0000022134630463946FCF7A6F906D29F4A37
:1046C0009F4BDDE91601FBF7E5FF05E09B4A9C4B9C
:1046D000DDE91601FCF780F8CDE90C01BBF1020F12
:1046E00002D1BAF11E0F05D0BBF1010F09D1BAF109
:1046F000140F06D1DDE91C23DDE91801FCF76CF885
:1047000005E0DDE91C23DDE91801FBF7C3FF0446E2
:104710000D4620462946DDE91823FBF7BBFFCDE90E
:104720000A01DDE91423FCF76FF925D24FF00001EF
:104730007F48C0F84C110146D1F84C31D1F84C11EA
:1047400001F101010246C2F84C1103EB83017A4AE0
:1047500002EB011108467749FBF70BFD4FF0000112
:104760007348D0F84C0100EB8000734A02EB001054
:1047700001704FF099005FE700204FF08041DDE9C4
:104780001423FCF72FF8CDE90A01DDE918231046C0
:104790001946FCF727F8CDE90601DDE91423104698
:1047A0001946FCF71FF822462B46CDE902012046A8
:1047B0002946FCF717F8CDE90001DDE90223FBF7F4
:1047C00069FFCDE90401DDE90623FCF705F8CDE931
:1047D0000801DDE90A23FCF776F880468946DDE921
:1047E00016010AF033F842464B46CDE90801FBF7C3
:1047F000F9FFCDE90A01DDE92823FBF74BFFCDE9FD
:104800001001DDE9160111F0C1FF42464B46CDE92A
:104810000801FBF7E7FFCDE90A01DDE92A23FBF7F1
:1048200039FFCDE90E0142464B4640464946FBF76B
:10483000D9FF22462B46CDE90A0120462946FBF73F
:10484000D1FFCDE90801DDE90A23FCF7DDF825D821
:104850004FF000013648C0F84C110146D1F84C31F8
:10486000D1F84C1101F101010246C2F84C1103EBE1
:104870008301314A02EB011108462E49FBF779FC0E
:104880004FF000012A48D0F84C0100EB80002A4A82
:1048900002EB001001704FF02100CDE642464B467E
:1048A00040464946FBF79EFF22462B46CDE90801CC
:1048B00020462946FBF796FFCDE90601DDE90823EE
:1048C000FBF78AFFCDE90A0111F0B8FFCDE912012B
:1048D000DDE90C0109F0BAFFCDE90801DDE9122399
:1048E000FBF780FFCDE90A01DDE91023FBF7D2FEDB
:1048F000329A03C2DDE90C0111F048FFCDE908014D
:10490000DDE91223FBF76EFFCDE90A01DDE90E2395
:10491000FBF7C0FE339A03C2BAF1140F02D14FF075
:10492000FF3101E04FF0010134980160002083E67F
:10493000A0D50020F60300204CC70020182D4454B9
:10494000FB21F93F2DE9F04F89B0804614461D4602
:10495000DDE91DABDDF8709020462946DDE918231E
:10496000FBF798FEC9E90001DDE91A23DDE9120130
:10497000FBF790FECAE90001DAE90001CDE9000188
:10498000DDE91223FBF728FFCDE90401D9E9000195
:1049900022462B46CDE90001FBF71EFFCDE90201BF
:1049A000DDE904230BF01EFD06460F46DAE900019F
:1049B000CDE90001DDE91623FBF70EFFCDE9040187
:1049C000D9E90001CDE90001DDE91423FBF704FF7B
:1049D000CDE90201DDE904230BF004FDCDE9060178
:1049E0000022134630463946FCF70EF806D0002266
:1049F0001346DDE90601FCF707F828D14FF0000166
:104A00004948C0F84C110146D1F84C31D1F84C114D
:104A100001F101010246C2F84C1103EB8301A0F63B
:104A2000546202EB011108464049FBF7A2FB4FF02C
:104A300000013D48D0F84C0100EB80003C4A02EBFD
:104A4000001001704FF0C50009B0BDE8F08F30468E
:104A50003946DDE90623FBF7BFFE21F00041CDE931
:104A60000401DDE92023FBF7E3FF24D24FF000012E
:104A70002D48C0F84C110146D1F84C31D1F84C21E9
:104A800002F10102C1F84C2103EB8301284A02EB39
:104A9000011108462549FBF76CFB4FF00001224845
:104AA000D0F84C0100EB8000214A02EB00100170AD
:104AB0004FF09800C8E7B8F1140F04D14FF0FF3061
:104AC000CBF800002DE0B8F11E0F04D14FF001002B
:104AD000CBF8000025E04FF000011348C0F84C115E
:104AE0000146D1F84C31D1F84C1101F101010246D7
:104AF000C2F84C1103EB83010D4A02EB0111084689
:104B00000A49FBF736FB4FF000010748D0F84C018B
:104B100000EB8000064A02EB001001704FF0140019
:104B200092E7002090E70000A0D5002006040020B6
:104B30004CC700202DE9FF5F90B092469B46DDE90F
:104B4000246752465B46DDE92001FBF75DFF2FD16C
:104B5000DDE91E23DDE92201FBF756FF28D14FF0E6
:104B600000019C48C0F84C110146D1F84C31D1F8F5
:104B70004C1101F101010246C2F84C1103EB830113
:104B8000A0F6546202EB011108469349FBF7F1FAD3
:104B90004FF000018F48D0F84C0100EB80008F4AA5
:104BA00002EB001001704FF0450014B0BDE8F09F1B
:104BB00027F0004334461D4652465B46DDE920019E
:104BC000FBF768FD00224FF08043CDE90401FBF7BD
:104BD0007AFECDE90E01DDE91E23DDE92201FBF7B6
:104BE00059FD00224FF08043CDE90401FBF76BFE35
:104BF000CDE90C01DDE92223DDE90C01FBF7ECFD39
:104C0000CDE90401DDE92023DDE90E01FBF7E4FD38
:104C1000CDE90201DDE904230BF0E4FB804689467F
:104C200022462B4640464946FBF74DFE41F298127C
:104C30006B4BCDE90401FBF7FBFE25D24FF00001E1
:104C40006448C0F84C110146D1F84C31D1F84C11F0
:104C500001F101010246C2F84C1103EB83015F4AE6
:104C600002EB011108465C49FBF783FA4FF00001A3
:104C70005848D0F84C0100EB8000584A02EB001075
:104C800001704FF0070090E722462B464046494608
:104C9000FBF719FE534A524B5B1ECDE90401FBF7AB
:104CA000C7FE01D2A046A9461098142806D10022BA
:104CB000134630463946FBF7BBFE09D310981E2831
:104CC00023D10022134630463946FBF79DFE1CD205
:104CD00052465B46DDE92001FBF77EFDCDE902018E
:104CE000DDE91E23DDE92201FBF776FDCDE90001B8
:104CF000DDE9022300F0CEFA3B4A3C4BCDE904014A
:104D0000FBF76AFDCDE908011BE052465B46DDE991
:104D10002001FBF761FDCDE90201DDE91E23DDE99C
:104D20002201FBF759FDCDE90001DDE9022300F086
:104D3000B1FA2D4A2D4BCDE90401FBF7ABFCCDE9CF
:104D4000080122462B4640464946FBF7BCFDCDE90B
:104D5000040100F04DF8CDE90601DDE9060109F096
:104D600075FD22462B46CDE90401FBF73BFDCDE95D
:104D70000A01DDE9080109F069FDCDE90201DDE97B
:104D80000A23FBF72FFDCDE90401DDE90E23FBF734
:104D900081FC269A03C2DDE9080111F0F7FCCDE998
:104DA0000201DDE90A23FBF71DFDCDE90401DDE980
:104DB0000C23FBF76FFC279A03C21098142802D12A
:104DC0004FF0FF3101E04FF0010128980160002011
:104DD000EBE60000A0D50020130400204CC7002003
:104DE0000000F03FD1DCFFFF182D4454FB21F93FB8
:104DF0002DE9F04D914F21F0004A86B005460C4652
:104E0000BA452FDBAAEB070028430BD08C4882451C
:104E100001DC1BD1D5B106B02846BDE8F04D01221A
:104E2000FBF73DBF874A884B2846FBF7DBFC07466C
:104E30000E46864A864B28462146FBF7D3FC06B031
:104E40003A463346BDE8F04DFBF724BC0120FEF79F
:104E5000FBFB06B00022BDE8F04D1346104611469C
:104E6000FBF731BD7B48824543DABAF1795F0BDA53
:104E70002846FDF771FF042808BFFEF7CDFB284642
:104E800006B02146BDE8F08D2A460B461046214665
:104E9000FBF7A8FC834602466F480E460B460621E8
:104EA0007844FEF7ADF95A463346FBF79BFC804643
:104EB0006A488A465A46334604217844FEF7A0F9E8
:104EC0005A463346FBF78EFC00223B46FBF7E2FBDB
:104ED00002460B4640465146FBF7F5FC2A46234660
:104EE000FBF780FC06B02A462346BDE8F04DFBF7F1
:104EF000D1BB284624F0004100223D463B46FBF74B
:104F00006EFC4FF0FF32FBF7CAFE064602465448DD
:104F10000F460B4606217844FEF772F932463B46AF
:104F2000FBF760FCCDE900014E4832463B460421C8
:104F30007844FEF765F932463B46FBF753FC002206
:104F40002B46FBF7A7FB834602913046394611F00A
:104F500075FC804644480D46504517DCDDE90001EC
:104F60005A46029BFBF7AFFC42462B46FBF73AFC46
:104F700042462B46FBF78EFB0122FBF790FE314A9F
:104F8000314BFBF729FC314A314B4DE04FF0000A21
:104F90000B46524640462946FBF77CFBCDE9031001
:104FA00052462B4610461946FBF71CFC32463B4640
:104FB000FBF715FCDDE90332FBF785FC06460F46DF
:104FC000DDE900015A46029BFBF77DFC8346009118
:104FD000012230463946FBF762FE1A4A1A4BFBF7AC
:104FE000FEFB06460F46012240462946FBF757FEC8
:104FF0005A46009BFBF7F6FB32463B46FBF7ECFBC1
:1050000007460E46012250462946FBF748FE0F4D43
:10501000DFF858802A464346FBF7E1FB3A46334621
:10502000FBF7DDFB2A464346FBF7D9FB002CD8BF34
:1050300081F0004106B0BDE8F08D00000000F03FB7
:105040000000F07F075C143326A6913C182D4454D1
:10505000FB21F93F0000E03F743001008A3001007D
:10506000FE2F0100143001003333EF3FFB21E93FF5
:105070002DE9F84F04460D4621F000400091744997
:10508000884212DB7349884201DC07D134B12046E3
:105090002946BDE8F84F0122FBF701BE6E48002DFE
:1050A000CCBF6E496E49BDE8F88F6E49884211DA6F
:1050B0006D498842A8BF4FF0FF366DDA2046294679
:1050C000FDF74AFE042808BFFEF7A6FA2046294647
:1050D000BDE8F88F6549DFF898A125F000458842C2
:1050E00032DA6449884219DA002632464FF08043AA
:1050F00020462946FBF7CEFA07468846012220467D
:105100002946FBF7CCFD00225346FBF765FB3A46E8
:105110004346FBF7D8FB04460D463DE0012600223E
:10512000534620462946FBF7B5FA07468846002233
:10513000534620462946FBF74FFB43463A46FBF7CA
:10514000C2FB04460D4627E04B4988421BDADFF8D4
:105150002C8102260022434620462946FBF742FBCB
:1051600000225346FBF796FA82460F46002243463A
:1051700020462946FBF730FB52463B46FBF7A3FB94
:1051800004460D4608E0032622462B4600203C49F3
:10519000FBF799FB04460D4622462B46104619465E
:1051A000FBF720FB8B46824602460B46FBF71AFBB9
:1051B00007460246334888460B4606217844FEF7E8
:1051C0001FF852465B46FBF70DFB82462E488B4686
:1051D0003A46434605217844FEF712F83A464346DC
:1051E000FBF700FB02460B46002E504659460CDAF0
:1051F000FBF750FA22462B46FBF7F4FA01B02246A1
:105200002B46BDE8F04FFBF7EABAFBF743FA22461C
:105210002B46FBF7E7FA1D4A7A4402EBC603D3E9B3
:105220000023FBF7D9FA22462B46FBF7D5FA184A9A
:105230007A4402EBC603D3E90023FBF7D0FA009AC5
:10524000002AB4BF81F00041BDE8F88FBDE8F88FB7
:10525000000010440000F07F182D4454FB21F93F5A
:10526000FB21F9BF0000DC3F0000203E0000F33FBF
:105270000000F03F0000E63F008003400000F83FE0
:105280000000F0BFB02F01006E2F01000C2F0100B5
:10529000D42E01002DE9F04D9446CCF1000423F00A
:1052A00000464CEA0404524F46EAD47498468A46B3
:1052B00021F00042BC4206D8454240EA050442EAD9
:1052C000D474BC4204D9BDE8F04D6246FBF7E2B9A4
:1052D000A8F14055A5F17F6555EA0C040BD00224D6
:1052E00004EAA874434DDFF810E144EADA7452EAA4
:1052F000000B04D00CE0BDE8F04DFFF7B9BE002C68
:1053000014BF012CBDE8F08D022C30D0032C32D01C
:1053100056EA0C0B0AD0BE4220D1BA4209D126F07F
:10532000804622F080423346114617E000291ADBFE
:1053300025E0DFF8C8B0FB44002C04BFDBE9000126
:10534000BDE8F08D012C02BFDBE9000181F00041D6
:10535000BDE8F08D022C0AD0032C0CD0BA4212D139
:10536000BAF1000F0BDA23482549BDE8F08D284635
:105370002449BDE8F08D28467146BDE8F08D1D48F2
:105380002149BDE8F08D921B12153C2AC4BF194873
:105390001D490EDCB8F1000FBEBF12F13C0F00201A
:1053A000014606DB6246FBF78EFA21F00041FFF76B
:1053B0005FFE002C08BFBDE8F08D012C04BF81F01A
:1053C0000041BDE8F08D114A114B022C07D0FBF7CC
:1053D00003FA2A46BDE8F04D0A4BFBF7FDB9FBF78F
:1053E000FBF92A46BDE8F04D064BFBF7F8B9000083
:1053F0000000F07F182D4454FB2109C0962E0100B7
:10540000FB21F9BFFB210940FB21F93F075C143365
:1054100026A6A13C2DE9F041C1F30A52A2F2FF36C3
:105420002F4A304B0D460446142E2FDA002E12DA86
:10543000FBF730F900221346FBF7FAFA4CD2002DA5
:10544000BCBF4FF00045002446DB55EA040018BFFE
:10545000254D41D018E0DFF894C02CFA06F705EA94
:10546000070C5CEA040C08BFBDE8F081FBF712F9F9
:1054700000221346FBF7DCFA2ED2002D03DD4FF499
:105480008010F0400544BD43002425E0332EC8BF02
:10549000BDE8F081A6F1140C4FF0FF3727FA0CF7A6
:1054A0003C4208BFBDE8F081FBF799F900221346A2
:1054B000FBF7BEFA10D2002D0DDD142E08BF6D1CB7
:1054C00009D0C6F13400012101FA00F02044A042C5
:1054D00038BF6D1C0446BC4329462046BDE8F08118
:1054E0009C7500883CE4377E0000F03FFFFF0F0012
:1054F0002DE9FF5F04468946D4F810010546681C73
:1055000074D0282D35D1D4F8B0110E46D4F8B4019A
:1055100007460022C04B30463946FBF775FA65D185
:105520004FF00001BD48C0F84C110146D1F84C3194
:10553000D1F84C1101F101010246C2F84C1103EB04
:105540008301A0F6546202EB01110846B449FAF750
:1055500010FE4FF00001B148D0F84C0100EB800084
:10556000B04A02EB001001704FF0480004B0BDE8F3
:10557000F09FB5F5FA7F7ED1D4F8B0110E46D4F87D
:10558000B4010746A84AA94B30463946FBF782F8D2
:105590008246FBF71AFA8046D4F87801022826D012
:1055A0004FF000019D48C0F84C110146D1F84C3134
:1055B000D1F84C1101F101010246C2F84C1103EB84
:1055C0008301984A02EB011108469549FAF7D1FD8B
:1055D0004FF000019148D0F84C0100EB8000914A57
:1055E00002EB001001704FF06300BFE7C8E04046D7
:1055F000FBF7DAF982468B46D4F8B0110E46D4F8A0
:10560000B4010746884A894B30463946FBF742F8D1
:1056100052465B46CDE90001FBF7DEF8824A844B37
:10562000CDE90201FBF704FA26D24FF000017B48D6
:10563000C0F84C110146D1F84C31D1F84C1101F1B0
:1056400001010246C2F84C1103EB8301754A02EBDB
:10565000011108467249FAF78CFD4FF000016F48BE
:10566000D0F84C0100EB80006E4A02EB0010017094
:105670004FF08A007AE72BE0B8F1010F02DBB8F1B6
:10568000090F7DDD4FF000016448C0F84C11014660
:10569000D1F84C31D1F84C1101F101010246C2F8A8
:1056A0004C1103EB83015F4A02EB011108465C4990
:1056B000FAF75FFD4FF000015848D0F84C0100EBBD
:1056C0008000584A02EB001001704FF08B004DE74C
:1056D000B5F58C7F54D0B5F5967FFBD0A5F500705D
:1056E000123865D1D4F8800148B3D4F880010A2873
:1056F00025D04FF000014948C0F84C110146D1F8BF
:105700004C31D1F84C1101F101010246C2F84C11A3
:1057100003EB8301434A02EB011108464049FAF7C3
:1057200028FD4FF000013D48D0F84C0100EB80000F
:105730003C4A02EB001001704FF0780016E74FF47E
:105740008E700059A0F540718E3909D04FF48E70DB
:105750000059B0F5617F5CD099F8F803012858D161
:105760004FF000012D48C0F84C110146D1F84C31E2
:10577000D1F84C1101F101010246C2F84C1100E0D0
:1057800047E003EB8301274A02EB01110846244955
:10579000FAF7EFFC4FF000012048D0F84C0100EB85
:1057A0008000204A02EB001001704FF03D00DDE662
:1057B000B5F5667F2DD0A5F54070993829D0401EEB
:1057C00027D0401E25D04FF000011448C0F84C11DE
:1057D0000146D1F84C31D1F84C1101F101010246DA
:1057E000C2F84C1103EB83010E4A02EB011108468B
:1057F0000B49FAF7BEFC4FF000010848D0F84C0105
:1058000000EB8000074A02EB001001704FF00F0020
:10581000ACE60020AAE600000000F0BFA0D5002002
:105820001E0400204CC700202D431CEBE2361A3F1B
:10583000E2362A3F70B504460D4629462046FFF75A
:1058400057FE060026D03F48D0F84C0131281FDA19
:105850003C49D1F84C31D1F84C11491C394AC2F8B5
:105860004C1103EB8301A2F6546202EB01110846CE
:105870003549FAF77EFC4FF000013248D0F84C0170
:1058800000EB8000314A02EB00100170304670BD21
:105890003046FCE7204600F05BF8060025D029489A
:1058A000D0F84C0131281EDA2649D1F84C31D1F814
:1058B0004C11491C234AC2F84C1103EB8301234AC3
:1058C00002EB011108462049FAF753FC4FF00001A2
:1058D0001C48D0F84C0100EB80001C4A02EB001081
:1058E00001703046D3E73046D1E7204600F066F835
:1058F000060025D01348D0F84C0131281EDA114992
:10590000D1F84C31D1F84C11491C0E4AC2F84C1157
:1059100003EB83010D4A02EB011108460A49FAF72D
:1059200028FC4FF000010748D0F84C0100EB800044
:10593000064A02EB001001703046A8E73046A6E7A1
:105940000020A4E7A0D500202C0400204CC7002094
:1059500010B50446D4F88401042826DD4FF0000178
:105960001348C0F84C110146D1F84C31D1F84C1114
:1059700001F101010246C2F84C1103EB8301A0F6CC
:10598000546202EB011108460A49FAF7F2FB4FF0A4
:1059900000010748D0F84C0100EB8000064A02EBFA
:1059A000001001704FF0A30010BD0020FCE70000C4
:1059B000A0D50020380400204CC700202DE9F0417C
:1059C0000746D7F880010446D7F80001401C33D0C1
:1059D0004FF49670C059B0F5CD7F2DD04FF496702E
:1059E000C059B0F5D27F27D04FF00001EB48C0F886
:1059F0004C110146D1F84C31D1F84C1101F10101A3
:105A00000246C2F84C1103EB8301A0F6546202EB8C
:105A100001110846E249FAF7ACFB4FF00001DF48FC
:105A2000D0F84C0100EB8000DE4A02EB0010017060
:105A30004FF04700BDE8F081D7F84801401C2BD05B
:105A40004FF49870C059B0F5D77F25D04FF00001C2
:105A5000D248C0F84C110146D1F84C31D1F84C1164
:105A600001F101010246C2F84C1103EB8301CD4A5A
:105A700002EB01110846CA49FAF77BFB4FF000011F
:105A8000C648D0F84C0100EB8000C64A02EB00107B
:105A900001704FF05500CDE7D7F84C0101282DD10A
:105AA000142C2BD01E2C29D0A4F54070663825D09C
:105AB0004FF00001B948C0F84C110146D1F84C3103
:105AC000D1F84C1101F101010246C2F84C1103EB6F
:105AD0008301B44A02EB01110846B149FAF749FBC8
